:020000040000FA
:100000000C9462000C947B050C9454050C948A00AB
:100010000C948A000C948A000C948A000C948A0038
:100020000C948A000C948A000C948A000C948A0028
:100030000C948A000C948A000C948A000C948A0018
:100040000C940A050C948A000C948A000C948A0083
:100050000C948A000C948A000C948A000C948A00F8
:100060000C94A2050C948A000000000024002700D4
:100070002A0000000000250028002B0000000008D6
:10008000000201000003040700000000000000005F
:10009000010204081020408001020408102001021F
:1000A000040810200000000023002600290004049A
:1000B0000404040404040202020202020303030310
:1000C0000303C10611241FBECFEFD8E0DEBFCDBFB2
:1000D00011E0A0E0B1E0E2E3F3E102C005900D928F
:1000E000A034B107D9F722E0A0E4B1E001C01D922D
:1000F000A733B207E1F710E0C2E6D0E004C02197D1
:10010000FE010E949109C136D107C9F70E9461071B
:100110000C9497090C94000008950895AF92BF9233
:10012000CF92DF92EF92FF920F931F93CF93DF93C3
:100130006C017B018B01040F151FEB015E01AE18F2
:10014000BF08C017D10759F06991D601ED91FC9114
:100150000190F081E02DC6010995892B79F7C50141
:10016000DF91CF911F910F91FF90EF90DF90CF9093
:10017000BF90AF900895833081F028F4813099F0DA
:100180008230A9F008958730A9F08830C9F0843012
:10019000B1F4809180008F7D03C0809180008F77C3
:1001A00080938000089584B58F7784BD089584B5C9
:1001B0008F7DFBCF8091B0008F778093B000089542
:1001C0008091B0008F7DF9CFCF93DF93282F30E05F
:1001D000F901E458FF4F8491F901E057FF4FD491A2
:1001E000F901E255FF4FC491CC23A1F081110E9487
:1001F000BB00EC2FF0E0EE0FFF1FEC55FF4FA59179
:10020000B491EC91ED2381E090E009F480E0DF917E
:10021000CF91089580E090E0FACF1F93CF93DF93C2
:10022000282F30E0F901E458FF4F8491F901E0579D
:10023000FF4FD491F901E255FF4FC491CC23A9F0AF
:10024000162F81110E94BB00EC2FF0E0EE0FFF1F74
:10025000EE58FF4FA591B4918FB7F894EC9111111E
:1002600008C0D095DE23DC938FBFDF91CF911F9123
:100270000895DE2BF8CFCF93DF9390E0FC01E05799
:10028000FF4F249182559F4FFC0184918823C9F030
:1002900090E0880F991FFC01E859FF4FA591B49198
:1002A000FC01EE58FF4FC591D49161110DC09FB76D
:1002B000F8948C91209582238C938881282328831D
:1002C0009FBFDF91CF910895623051F49FB7F894AA
:1002D0003C91822F809583238C93E8812E2BEFCF46
:1002E0008FB7F894EC912E2B2C938FBFEACF3FB7AA
:1002F000F8948091F3019091F401A091F501B091EF
:10030000F60126B5A89B05C02F3F19F00196A11D47
:10031000B11D3FBFBA2FA92F982F8827BC01CD014F
:10032000620F711D811D911D42E0660F771F881FAE
:10033000991F4A95D1F708958F929F92AF92BF92DD
:10034000CF92DF92EF92FF924B015C010E94770106
:100350006B017C010E9477016C197D098E099F0950
:10036000683E734081059105A8F321E0821A910847
:10037000A108B10888EEC80E83E0D81EE11CF11C6C
:1003800081149104A104B10429F7FF90EF90DF904C
:10039000CF90BF90AF909F908F900895089508954B
:1003A00020918101260F3327331F21323105ECF4D0
:1003B0002091CA01FC0190E080E0243069F082E0E5
:1003C0000895A09181012191AC014F595E4FA40F76
:1003D000B52FB11D2C930196861798F3809181015A
:1003E000680F6093810180E0089581E00895109284
:1003F000CA0181E08093C9011092A40161E082E109
:100400000E940D0161E083E10E940D01E9EBF0E043
:1004100080818E7F808380818D7F808388E480933C
:10042000B80085E48093BC000895CF93DF9391E0FA
:10043000909360018823B9F0C091B800D091BA00C0
:100440008091BC008A7B8093BC0060E082E10E94C6
:100450000D0160E083E10E940D010E94F701D0933D
:10046000BA00C093B800DF91CF9108950895E0914C
:10047000FE018091FD01E81730F4F0E0E05CFE4FF2
:10048000808190E008958FEF9FEF08959091FE0195
:100490008091FD012FEF3FEF981748F4E92FF0E02E
:1004A000E05CFE4F208130E09F5F9093FE01C90128
:1004B00008958091FD019091FE01891B990B08958B
:1004C000CF92DF92EF92FF920F931F93CF93DF9320
:1004D0007C01CB018A012091D001222389F0EB011C
:1004E0006B01C40ED51ECC15DD0569F06991D701ED
:1004F000ED91FC910190F081E02DC7010995F3CFBA
:10050000642F0E94D001C801DF91CF911F910F91FC
:10051000FF90EF90DF90CF900895CF93DF931F92DD
:10052000CDB7DEB769832091D0012223F9F0209165
:10053000FB01203258F021E030E0FC0133832283BC
:1005400090E080E00F90DF91CF9108958091FC01C1
:10055000E82FF0E0EF52FE4F998190838F5F8093F8
:10056000FC018093FB0181E090E0ECCF61E0CE01E3
:1005700001960E94D001F7CFCF92DF92EF92FF92C7
:100580000F931F93CF93DF93FC01C48121E020934D
:10059000D001C093F1011092FC011092FB01838500
:1005A000682B8FE092E00E948D02D091FB01D13246
:1005B00008F092C00E9477016B017C018091CA0112
:1005C000811165C082E08093CA0181E08093C901F6
:1005D0008FEF8093C8011092C701D093C601A1ED9F
:1005E000B1E0E6EAF1E080E0D81385C01092A50101
:1005F0008091A501CC0FC82BC093A5018091A401C7
:10060000813009F07CC01092A4010E9477016B0137
:100610007C018091A5018093BB008091CC019091D9
:10062000CD01A091CE01B091CF01892B8A2B8B2BCC
:1006300099F00E9477010091CC011091CD01209199
:10064000CE013091CF016C197D098E099F090617E3
:10065000170728073907E0F18091BC0083FDD9CF47
:1006600085EC8093BC000E9477016B017C01809136
:10067000CA01823009F445C08091C8018F3F61F101
:100680008091C801803241F18091C80125C08091DC
:10069000CC019091CD01A091CE01B091CF01892BD9
:1006A0008A2B8B2B09F48ACF0E9477010091CC0111
:1006B0001091CD012091CE013091CF016C197D09AF
:1006C0008E099F09061717072807390708F076CF04
:1006D0008091CB010E9415021092FC011092FB0147
:1006E0001092D001DF91CF911F910F91FF90EF9069
:1006F000DF90CF9008959D9191938F5F75CF85EE98
:10070000B0CF8091CC019091CD01A091CE01B0915C
:10071000CF01892B8A2B8B2B09F4A9CF0E9477015B
:100720000091CC011091CD012091CE013091CF01EB
:100730006C197D098E099F090617170728073907C5
:1007400008F095CFC5CF90E080E00895DC01ED91F1
:10075000FD918081ED91FD919081ED91FD916C91E4
:1007600063708E2309F064609F2309F06860E3ECF6
:10077000F3E0E60FF11D659565956D936D917D91A3
:100780008D919D91099423C01AC012C016C010C04B
:100790001EC009C014C013C006C019C009C00DC0D6
:1007A00007C00DC014C062507040804090400BC024
:1007B000615070408040904006C06E5F01C06F5F26
:1007C0007F4F8F4F9F4F9E938E937E936E9308958E
:1007D00080911B0290911C020C94A60380911D0233
:1007E00090911E020C94A60380912A02823078F424
:1007F000F8948FE192E00E94A60360912602709126
:100800002702809128029091290278940895F89403
:10081000F4CF0F931F93CF938C01C62F0E94BC027D
:100820006C2F6460C8010E94BC026C2F6B7FC801F2
:100830000E94BC0283EC90E00197F1F7CF911F91E9
:100840000F9108950F931F93CF93DF938C01D62FB1
:10085000C42F607F642B0E94090480E1D89FB001FF
:1008600011246C2BC801DF91CF911F910F910C9433
:10087000090441E00E94220481E090E00895CF93B2
:10088000DF93CDB7DEB728970FB6F894DEBF0FBE63
:10089000CDBF98E0E4E0F1E0DE01119601900D9209
:1008A0009A95E1F790913302981708F48FEF90E052
:1008B000880F991F21E030E02C0F3D1F820F931FFE
:1008C000FC016081606840E08BE292E028960FB600
:1008D000F894DEBF0FBECDBFDF91CF910C94220400
:1008E0008F929F92AF92BF920F931F93CF93DF93FC
:1008F000CDB7DEB7A1970FB6F894DEBF0FBECDBF60
:1009000019A2423008F44AE08E010F5D1F4F842E79
:10091000912CB12CA12CA50194010E946F09E62F06
:10092000B901CA01EA3044F5E05DD801EE938D01CA
:10093000232B242B252B79F790E080E0109769F08A
:10094000FD0101900020E9F73197AF014A1B5B0BD5
:10095000BD018BE292E00E948E00A1960FB6F89442
:10096000DEBF0FBECDBFDF91CF911F910F91BF9022
:10097000AF909F908F900895E95CD7CFBC01990FFD
:10098000880B990B4AE00C947004FC010190002044
:10099000E9F73197AF01481B590BBC018BE292E09C
:1009A0000C948E0085ED8093BC008091CC019091D9
:1009B000CD01A091CE01B091CF010796A11DB11D2F
:1009C00023E0B695A795979587952A95D1F720911D
:1009D000BC0024FD03C01092CA0108954091CC01CF
:1009E0005091CD016091CE017091CF01452B462BE6
:1009F000472B69F30097A105B10541F025E32A953E
:100A0000F1F700000197A109B109E1CF8091CB0175
:100A10000C9415021F920F920FB60F9211242F9370
:100A20003F938F939F93AF93BF938091FF019091DA
:100A30000002A0910102B09102023091F20123E084
:100A4000230F2D3758F50196A11DB11D2093F201FA
:100A50008093FF0190930002A0930102B0930202E1
:100A60008091F3019091F401A091F501B091F6010C
:100A70000196A11DB11D8093F3019093F401A09301
:100A8000F501B093F601BF91AF919F918F913F9186
:100A90002F910F900FBE0F901F90189526E8230FEF
:100AA0000296A11DB11DD2CF1F920F920FB60F92C9
:100AB00011242F933F934F935F936F937F938F9363
:100AC0009F93AF93BF93EF93FF93E0910201F09157
:100AD00003010995FF91EF91BF91AF919F918F9184
:100AE0007F916F915F914F913F912F910F900FBE2A
:100AF0000F901F9018951F920F920FB60F9211240E
:100B00002F933F934F935F936F937F938F939F9315
:100B1000AF93BF93EF93FF93E0910001F091010138
:100B20000995FF91EF91BF91AF919F918F917F9127
:100B30006F915F914F913F912F910F900FBE0F904A
:100B40001F9018951F920F920FB60F9211242F939A
:100B50003F934F935F936F937F938F939F93AF9345
:100B6000BF93EF93FF938091B900887F803609F49B
:100B70004AC0F0F5883209F4A7C018F5803109F4AD
:100B80009BC0B8F4882309F4F9C0883009F494C0F4
:100B9000FF91EF91BF91AF919F918F917F916F9155
:100BA0005F914F913F912F910F900FBE0F901F902B
:100BB0001895883109F488C0803251F78093C801B4
:100BC00014C0803409F49DC040F48033B9F38833F5
:100BD000F9F68093C80185ECB0C0803509F485C072
:100BE000883509F496C0883499F60E94D204D0CF93
:100BF000883909F48CC038F5883729F050F48836E4
:100C000011F0803729F683E08093CA011092A30186
:100C100057C0883809F47BC0803919F0803809F052
:100C2000B7CF8091A301803208F071C0E091A30199
:100C300081E08E0F8093A3018091BB00F0E0ED571F
:100C4000FE4F80833DC0803B39F0E0F4803A09F4E8
:100C500079C0883A09F09CCF84E08093CA01109251
:100C6000820110928101E091F901F091FA01099558
:100C70008091810181110FC081E0809381011092E8
:100C8000610109C0803C09F4A6CF883C09F4A3CFD8
:100C9000883B09F07DCFE091820181E08E0F809347
:100CA0008201F0E0EF59FE4F80818093BB0090916C
:100CB00082018091810129C08091A5018093BB00B0
:100CC00085EC8093BC0064CF9091C7018091C601F0
:100CD000981758F5E091C70181E08E0F8093C70106
:100CE000F0E0EA55FE4F8081E9CFE091C70181E055
:100CF0008E0F8093C7018091BB00F0E0EA55FE4F54
:100D000080839091C7018091C6019817C8F285E849
:100D1000D8CFE091C70181E08E0F8093C701809109
:100D2000BB00F0E0EA55FE4F80838091C90181113C
:100D30005CCF81E08093A40184EA8093BC00109290
:100D4000CA0126CF85EC8093BC001092CA01809125
:100D5000A301803230F4E091A301F0E0ED57FE4FA3
:100D600010826091A30170E0E091F701F091F80129
:100D700083E891E009951092A3010ACF1092C8016F
:100D800034CFCF93DF93109212021092110288EEAB
:100D900093E0A0E0B0E08093130290931402A0933C
:100DA0001502B093160280E191E0909310028093B7
:100DB0000F0210922E0210922D0282E291E0909387
:100DC0002C0280932B0287E280932F0280E1809394
:100DD000340282E0809335021092360262E00E9473
:100DE0003B0162E083E00E943B01E0EBF0E0E49134
:100DF000F0E0EE0FFF1FEC55FF4FA591B491B093BB
:100E00002002A0931F02E2E9F0E044914093230204
:100E1000E1EBF0E0E491F0E0EE0FFF1FEC55FF4F47
:100E2000C591D491D0932202C0932102E3E9F0E06E
:100E3000E491E0932402109226021092270210926D
:100E40002802109229022BE33FE1C9010197F1F733
:100E50009C91842F892391E009F490E08881E82314
:100E600009F092602FE132E09093250230931C024A
:100E700020931B0288EE93E0909301018093000180
:100E8000809169008C7F816080936900E89A81E09D
:100E900080932A0230931E0220931D028EEE93E06F
:100EA000909303018093020180916900837F8460A5
:100EB00080936900E99A82E080932A02DF91CF91C2
:100EC0000895789484B5826084BD84B5816084BDC2
:100ED00085B5826085BD85B5816085BD80916E00D8
:100EE000816080936E001092810080918100826009
:100EF0008093810080918100816080938100809146
:100F000080008160809380008091B1008460809334
:100F1000B1008091B00081608093B00080917A0030
:100F2000846080937A0080917A00826080937A0056
:100F300080917A00816080937A0080917A00806845
:100F400080937A001092C1001092FE011092FD0170
:100F50001092FC011092FB010E94F7018CE890E0D6
:100F60009093FA018093F9018DE890E09093F80155
:100F70008093F7011092300280913502823018F090
:100F800098E0909330028093330262E370E080E057
:100F900090E00E949C01609136028BE292E00E94F8
:100FA000BC0268EE73E080E090E00E949C0160E388
:100FB0008BE292E00E940904CBE4D6E4CE010197D3
:100FC000F1F760E38BE292E00E9409042197F1F7C8
:100FD00060E38BE292E00E94090483E592E00197CE
:100FE000F1F760E28BE292E00E9409046091300226
:100FF000606240E08BE292E00E94220484E08093F1
:10100000310240E06CE08BE292E00E94220440E07A
:1010100061E08BE292E00E942204CBE3DFE1CE01AB
:101020000197F1F782E08093320240E066E08BE2C4
:1010300092E00E94220440E062E08BE292E00E9493
:1010400022042197F1F788E08093360260E08BE27A
:1010500092E00E94BC02F89410922602109227029D
:101060001092280210922902789462E084E00E9493
:101070003B0161E08BE00E943B0161E08CE00E945B
:101080003B0161E086E00E943B0161E085E00E9457
:101090003B0160E08DE00E943B01DCE300E010E0FA
:1010A000BB24B39484E00E94E4007C018DE00E94A4
:1010B000E40021E0892B09F420E020930E020E9435
:1010C000F40316161706180619060CF0BBC00E948A
:1010D000F403C62FA0900D0280E00E943F048AE234
:1010E00091E00E94C5046C2F70E090E080E04AE03F
:1010F0000E94700484E391E00E94C504EF28E9F4A3
:1011000080910C028111A3C0CD9FC02D1124C093EA
:101110000D02B0920C0261E085E00E940D0161E0D9
:101120008BE00E940D0160E08CE00E940D0168ECF4
:1011300070E080E090E00E949C0180910C0281119F
:1011400009C080910E02882309F471C080910B02BE
:1011500081116DC08FB7F894C090FF01D09000024C
:10116000E0900102F09002028FBF809107029091FF
:101170000802A0910902B0910A02A7019601281B5A
:10118000390B4A0B5B0BDA01C90180339547A10586
:10119000B10570F0C0920702D0920802E0920902F5
:1011A000F0920A0260910D0290E080E00E945509E1
:1011B0008091030290910402A0910502B091060271
:1011C000A7019601281B390B4A0B5B0BDA01C901F9
:1011D000883E9340A105B10578F0C0920302D092F9
:1011E0000402E0920502F092060280910D0288232B
:1011F000D1F1815080930D0281E00E943F048EE284
:1012000091E00E94C5048A2D6D2F0E946309C92FA9
:1012100090E00E94BE0489E391E00E94C5048C2FF7
:1012200090E00E94BE048CE391E00E94C50480918E
:101230000E0280930B020115110509F433CF0E94B1
:10124000000030CF0E94F403C62FC19543CF109207
:101250000C0260E085E00E940D0160E08BE00E94DE
:101260000D0161E061CF60E08BE00E940D0161E063
:101270008CE00E940D0160E085E00E940D0161E0BC
:1012800086E00E940D0168EE73E080E090E00E942D
:101290009C0160E086E00E940D0110920C0260E06B
:1012A00090E080E00E945509A7CF262FF999FECF44
:1012B0001FBA92BD81BD20BD0FB6F894FA9AF99A73
:1012C0000FBE01960895991B79E004C0991F9617E7
:1012D00008F0961B881F7A95C9F780950895A1E2BA
:1012E0001A2EAA1BBB1BFD010DC0AA1FBB1FEE1FA0
:1012F000FF1FA217B307E407F50720F0A21BB30BEB
:10130000E40BF50B661F771F881F991F1A9469F766
:1013100060957095809590959B01AC01BD01CF01C2
:101320000895EE0FFF1F0590F491E02D0994F894B5
:10133000FFCFCE01CE010000400014005400000099
:1013400000008D026002A3033602590246023702F2
:101350000000000039048E00A303CF015365742000
:1013600054696D653A006D202020006D20007320C7
:0213700000007B
:107E0000112484B714BE81FFF0D085E080938100F7
:107E100082E08093C00088E18093C10086E0809377
:107E2000C20080E18093C4008EE0C9D0259A86E02C
:107E300020E33CEF91E0309385002093840096BBD3
:107E4000B09BFECF1D9AA8958150A9F7CC24DD24C4
:107E500088248394B5E0AB2EA1E19A2EF3E0BF2EE7
:107E6000A2D0813461F49FD0082FAFD0023811F036
:107E7000013811F484E001C083E08DD089C08234E0
:107E800011F484E103C0853419F485E0A6D080C0E4
:107E9000853579F488D0E82EFF2485D0082F10E0AE
:107EA000102F00270E291F29000F111F8ED06801E7
:107EB0006FC0863521F484E090D080E0DECF843638
:107EC00009F040C070D06FD0082F6DD080E0C81688
:107ED00080E7D80618F4F601B7BEE895C0E0D1E017
:107EE00062D089930C17E1F7F0E0CF16F0E7DF06D8
:107EF00018F0F601B7BEE89568D007B600FCFDCFD4
:107F0000A601A0E0B1E02C9130E011968C91119780
:107F100090E0982F8827822B932B1296FA010C0160
:107F200087BEE89511244E5F5F4FF1E0A038BF0790
:107F300051F7F601A7BEE89507B600FCFDCF97BE46
:107F4000E89526C08437B1F42ED02DD0F82E2BD052
:107F50003CD0F601EF2C8F010F5F1F4F84911BD097
:107F6000EA94F801C1F70894C11CD11CFA94CF0C13
:107F7000D11C0EC0853739F428D08EE10CD085E9AC
:107F80000AD08FE07ACF813511F488E018D01DD067
:107F900080E101D065CF982F8091C00085FFFCCF94
:107FA0009093C60008958091C00087FFFCCF809118
:107FB000C00084FD01C0A8958091C6000895E0E648
:107FC000F0E098E1908380830895EDDF803219F02E
:107FD00088E0F5DFFFCF84E1DECF1F93182FE3DFCA
:107FE0001150E9F7F2DF1F91089580E0E8DFEE27F6
:047FF000FF270994CA
:027FFE00040479
:00000001FF
