:100000000C9462000C9436050C940F050C948A0035
:100010000C948A000C948A000C948A000C948A0038
:100020000C948A000C948A000C948A000C948A0028
:100030000C948A000C948A000C948A000C948A0018
:100040000C94C5040C948A000C948A000C948A00C9
:100050000C948A000C948A000C948A000C948A00F8
:100060000C945D050C948A00000000002400270019
:100070002A0000000000250028002B0000000008D6
:10008000000201000003040700000000000000005F
:10009000010204081020408001020408102001021F
:1000A000040810200000000023002600290004049A
:1000B0000404040404040202020202020303030310
:1000C00003037C0611241FBECFEFD8E0DEBFCDBFF7
:1000D00011E0A0E0B1E0EEE4F3E102C005900D9282
:1000E000A034B107D9F722E0A0E4B1E001C01D922D
:1000F000A633B207E1F710E0C2E6D0E004C02197D2
:10010000FE010E949F09C136D107C9F70E941C0752
:100110000C94A5090C94000008950895AF92BF9225
:10012000CF92DF92EF92FF920F931F93CF93DF93C3
:100130006C017B018B01040F151FEB015E01AE18F2
:10014000BF08C017D10759F06991D601ED91FC9114
:100150000190F081E02DC6010995892B79F7C50141
:10016000DF91CF911F910F91FF90EF90DF90CF9093
:10017000BF90AF900895833081F028F4813099F0DA
:100180008230A9F008958730A9F08830C9F0843012
:10019000B1F4809180008F7D03C0809180008F77C3
:1001A00080938000089584B58F7784BD089584B5C9
:1001B0008F7DFBCF8091B0008F778093B000089542
:1001C0008091B0008F7DF9CF1F93CF93DF93282FBD
:1001D00030E0F901E458FF4F8491F901E057FF4FF7
:1001E000D491F901E255FF4FC491CC23A9F0162F09
:1001F00081110E94BB00EC2FF0E0EE0FFF1FEE58C4
:10020000FF4FA591B4918FB7F894EC91111108C0EC
:10021000D095DE23DC938FBFDF91CF911F9108959E
:10022000DE2BF8CFCF93DF9390E0FC01E057FF4F38
:10023000249182559F4FFC0184918823C9F090E05E
:10024000880F991FFC01E859FF4FA591B491FC015B
:10025000EE58FF4FC591D49161110DC09FB7F8942E
:100260008C91209582238C938881282328839FBF9B
:10027000DF91CF910895623051F49FB7F8943C918B
:10028000822F809583238C93E8812E2BEFCF8FB71D
:10029000F894EC912E2B2C938FBFEACF3FB7F894B4
:1002A0008091F3019091F401A091F501B091F601D4
:1002B00026B5A89B05C02F3F19F00196A11DB11DC1
:1002C0003FBFBA2FA92F982F8827BC01CD01620FFD
:1002D000711D811D911D42E0660F771F881F991FB8
:1002E0004A95D1F708958F929F92AF92BF92CF9285
:1002F000DF92EF92FF924B015C010E944E016B0175
:100300007C010E944E016C197D098E099F09683E8F
:10031000734081059105A8F321E0821A9108A10894
:10032000B10888EEC80E83E0D81EE11CF11C8114D0
:100330009104A104B10429F7FF90EF90DF90CF90D2
:10034000BF90AF909F908F90089508950895209149
:100350008101260F3327331F21323105ECF4209120
:10036000CA01FC0190E080E0243069F082E0089549
:10037000A09181012191AC014F595E4FA40FB52F7F
:10038000B11D2C930196861798F380918101680F17
:100390006093810180E0089581E008951092CA0180
:1003A00081E08093C9011092A40161E082E10E9482
:1003B000E40061E083E10E94E400E9EBF0E0808189
:1003C0008E7F808380818D7F808388E48093B800D6
:1003D00085E48093BC000895CF93DF9391E09093E0
:1003E00060018823B9F0C091B800D091BA00809123
:1003F000BC008A7B8093BC0060E082E10E94E40044
:1004000060E083E10E94E4000E94CE01D093BA0034
:10041000C093B800DF91CF9108950895E091FE0157
:100420008091FD01E81730F4F0E0E05CFE4F808140
:1004300090E008958FEF9FEF08959091FE018091D5
:10044000FD012FEF3FEF981748F4E92FF0E0E05C53
:10045000FE4F208130E09F5F9093FE01C901089517
:100460008091FD019091FE01891B990B0895CF9217
:10047000DF92EF92FF920F931F93CF93DF937C0154
:10048000CB018A012091D001222389F0EB016B017D
:10049000C40ED51ECC15DD0569F06991D701ED912B
:1004A000FC910190F081E02DC7010995F3CF642FF5
:1004B0000E94A701C801DF91CF911F910F91FF907A
:1004C000EF90DF90CF900895CF93DF931F92CDB739
:1004D000DEB769832091D0012223F9F02091FB013E
:1004E000203258F021E030E0FC013383228390E099
:1004F00080E00F90DF91CF9108958091FC01E82F6B
:10050000F0E0EF52FE4F998190838F5F8093FC0162
:100510008093FB0181E090E0ECCF61E0CE01019699
:100520000E94A701F7CFCF92DF92EF92FF920F9335
:100530001F93CF93DF93FC01C48121E02093D0016E
:10054000C093F1011092FC011092FB018385682B8E
:100550008EE092E00E946402D091FB01D13208F05B
:1005600092C00E944E016B017C018091CA018111F1
:1005700065C082E08093CA0181E08093C9018FEF5A
:100580008093C8011092C701D093C601A1EDB1E0DC
:10059000E6EAF1E080E0D81385C01092A5018091D1
:1005A000A501CC0FC82BC093A5018091A401813077
:1005B00009F07CC01092A4010E944E016B017C01E5
:1005C0008091A5018093BB008091CC019091CD01D9
:1005D000A091CE01B091CF01892B8A2B8B2B99F062
:1005E0000E944E010091CC011091CD012091CE01CD
:1005F0003091CF016C197D098E099F0906171707E5
:1006000028073907E0F18091BC0083FDD9CF85EC44
:100610008093BC000E944E016B017C018091CA0155
:10062000823009F445C08091C8018F3F61F180910B
:10063000C801803241F18091C80125C08091CC0170
:100640009091CD01A091CE01B091CF01892B8A2B41
:100650008B2B09F48ACF0E944E010091CC0110919E
:10066000CD012091CE013091CF016C197D098E0909
:100670009F09061717072807390708F076CF8091DA
:10068000CB010E94EC011092FC011092FB01109230
:10069000D001DF91CF911F910F91FF90EF90DF90EC
:1006A000CF9008959D9191938F5F75CF85EEB0CFD8
:1006B0008091CC019091CD01A091CE01B091CF015C
:1006C000892B8A2B8B2B09F4A9CF0E944E01009114
:1006D000CC011091CD012091CE013091CF016C1948
:1006E0007D098E099F09061717072807390708F0A3
:1006F00095CFC5CF90E080E00895DC01ED91FD91AC
:100700008081ED91FD919081ED91FD916C916370EF
:100710008E2309F064609F2309F06860EAE9F3E042
:10072000E60FF11D659565956D936D917D918D91A8
:100730009D91099423C01AC012C016C010C01EC0DB
:1007400009C014C013C006C019C009C00DC007C03D
:100750000DC014C062507040804090400BC061508A
:1007600070408040904006C06E5F01C06F5F7F4F59
:100770008F4F9F4F9E938E937E936E93089580919B
:100780001A0290911B020C947D0380911C0290919F
:100790001D020C947D030F931F93CF938C01C62FE2
:1007A0000E9493026C2F6460C8010E9493026C2F18
:1007B0006B7FC8010E94930283EC90E00197F1F7F0
:1007C000CF911F910F9108950F931F93CF93DF93B4
:1007D0008C01D62FC42F607F642B0E94CB0380E155
:1007E000D89FB00111246C2BC801DF91CF911F91CC
:1007F0000F910C94CB03CF93DF93CDB7DEB728973F
:100800000FB6F894DEBF0FBECDBF98E0E4E0F1E094
:10081000DE01119601900D929A95E1F790913202C6
:10082000981708F48FEF90E0880F991F21E030E0CF
:100830002C0F3D1F820F931FFC016081606840E018
:100840008AE292E028960FB6F894DEBF0FBECDBFC5
:10085000DF91CF910C94E40341E00E94E40381E036
:1008600090E008958F929F92AF92BF920F931F9343
:10087000CF93DF93CDB7DEB7A1970FB6F894DEBF65
:100880000FBECDBF19A2423008F44AE08E010F5DC1
:100890001F4F842E912CB12CA12CA50194010E94F4
:1008A0007D09E62FB901CA01EA3044F5E05DD801BF
:1008B000EE938D01232B242B252B79F790E080E0FC
:1008C000109769F0FD0101900020E9F73197AF0121
:1008D0004A1B5B0BBD018AE292E00E948E00A1964A
:1008E0000FB6F894DEBF0FBECDBFDF91CF911F9141
:1008F0000F91BF90AF909F908F900895E95CD7CFF4
:10090000FC0101900020E9F73197AF01481B590B1A
:10091000BC018AE292E00C948E0085ED8093BC00CD
:100920008091CC019091CD01A091CE01B091CF01E9
:100930000796A11DB11D23E0B695A79597958795BC
:100940002A95D1F72091BC0024FD03C01092CA0162
:1009500008954091CC015091CD016091CE017091EC
:10096000CF01452B462B472B69F30097A105B10515
:1009700041F025E32A95F1F700000197A109B1099B
:10098000E1CF8091CB010C94EC011F920F920FB636
:100990000F9211242F933F938F939F93AF93BF9305
:1009A0008091FF0190910002A0910102B09102029A
:1009B0003091F20123E0230F2D3758F50196A11D48
:1009C000B11D2093F2018093FF0190930002A09348
:1009D0000102B09302028091F3019091F401A09181
:1009E000F501B091F6010196A11DB11D8093F301AF
:1009F0009093F401A093F501B093F601BF91AF91EC
:100A00009F918F913F912F910F900FBE0F901F904C
:100A1000189526E8230F0296A11DB11DD2CF1F9273
:100A20000F920FB60F9211242F933F934F935F9322
:100A30006F937F938F939F93AF93BF93EF93FF93A6
:100A4000E0910201F09103010995FF91EF91BF91AF
:100A5000AF919F918F917F916F915F914F913F9156
:100A60002F910F900FBE0F901F9018951F920F920D
:100A70000FB60F9211242F933F934F935F936F9371
:100A80007F938F939F93AF93BF93EF93FF93E091E7
:100A90000001F09101010995FF91EF91BF91AF9194
:100AA0009F918F917F916F915F914F913F912F9186
:100AB0000F900FBE0F901F9018951F920F920FB6B8
:100AC0000F9211242F933F934F935F936F937F93D4
:100AD0008F939F93AF93BF93EF93FF938091B90050
:100AE000887F803609F44AC0F0F5883209F4A7C03F
:100AF00018F5803109F49BC0B8F4882309F4F9C0D3
:100B0000883009F494C0FF91EF91BF91AF919F910C
:100B10008F917F916F915F914F913F912F910F90A6
:100B20000FBE0F901F901895883109F488C080324D
:100B300051F78093C80114C0803409F49DC040F47B
:100B40008033B9F38833F9F68093C80185ECB0C0DF
:100B5000803509F485C0883509F496C0883499F643
:100B60000E948D04D0CF883909F48CC038F58837BD
:100B700029F050F4883611F0803729F683E080930D
:100B8000CA011092A30157C0883809F47BC080398C
:100B900019F0803809F0B7CF8091A301803208F0B6
:100BA00071C0E091A30181E08E0F8093A301809139
:100BB000BB00F0E0ED57FE4F80833DC0803B39F035
:100BC000E0F4803A09F479C0883A09F09CCF84E0D7
:100BD0008093CA011092820110928101E091F90183
:100BE000F091FA0109958091810181110FC081E096
:100BF000809381011092610109C0803C09F4A6CF65
:100C0000883C09F4A3CF883B09F07DCFE0918201B5
:100C100081E08E0F80938201F0E0EF59FE4F8081DA
:100C20008093BB00909182018091810129C08091C5
:100C3000A5018093BB0085EC8093BC0064CF9091AC
:100C4000C7018091C601981758F5E091C70181E06E
:100C50008E0F8093C701F0E0EA55FE4F8081E9CF07
:100C6000E091C70181E08E0F8093C7018091BB00A6
:100C7000F0E0EA55FE4F80839091C7018091C60154
:100C80009817C8F285E8D8CFE091C70181E08E0FB0
:100C90008093C7018091BB00F0E0EA55FE4F80834E
:100CA0008091C90181115CCF81E08093A40184EA25
:100CB0008093BC001092CA0126CF85EC8093BC00C3
:100CC0001092CA018091A301803230F4E091A30117
:100CD000F0E0ED57FE4F10826091A30170E0E091CB
:100CE000F701F091F80183E891E009951092A301D2
:100CF0000ACF1092C80134CFCF93DF931092110224
:100D00001092100288EE93E0A0E0B0E0809312020F
:100D100090931302A0931402B093150280E191E026
:100D200090930F0280930E0210922D0210922C02CB
:100D300082E291E090932B0280932A0287E28093D3
:100D40002E0280E18093330282E08093340210927D
:100D5000350262E00E94120162E083E00E9412010B
:100D6000E0EBF0E0E491F0E0EE0FFF1FEC55FF4FF9
:100D7000A591B491B0931F02A0931E02E2E9F0E0A6
:100D8000449140932202E1EBF0E0E491F0E0EE0FB9
:100D9000FF1FEC55FF4FC591D491D0932102C09312
:100DA0002002E3E9F0E0E491E093230210922502AF
:100DB0001092260210922702109228022BE33FE1A4
:100DC000C9010197F1F79C91842F892391E009F4DF
:100DD00090E08881E82309F092602EE132E0909360
:100DE000240230931B0220931A028FEB93E090931E
:100DF000010180930001809169008C7F8160809364
:100E00006900E89A81E08093290230931D022093C3
:100E10001C0285EC93E09093030180930201809182
:100E20006900837F846080936900E99A82E08093FF
:100E30002902DF91CF910895789484B5826084BDB2
:100E400084B5816084BD85B5826085BD85B58160CE
:100E500085BD80916E00816080936E00109281004C
:100E60008091810082608093810080918100816007
:100E700080938100809180008160809380008091C8
:100E8000B10084608093B1008091B0008160809354
:100E9000B00080917A00846080937A0080917A001B
:100EA000826080937A0080917A00816080937A00DA
:100EB00080917A00806880937A001092C10060E08F
:100EC00084E00E94120161E08BE00E94120161E067
:100ED0008CE00E94120161E086E00E94120161E054
:100EE00085E00E941201F8941092250210922602C9
:100EF000109227021092280278941092FE0110920C
:100F0000FD011092FC011092FB010E94CE018CE8C1
:100F100090E09093FA018093F9018DE890E090932E
:100F2000F8018093F70110922F02809134028230F1
:100F300018F098E090932F028093320262E370E001
:100F400080E090E00E947301609135028AE292E0B5
:100F50000E94930268EE73E080E090E00E947301CB
:100F600060E38AE292E00E94CB03CBE4D6E4CE01B8
:100F70000197F1F760E38AE292E00E94CB032197A8
:100F8000F1F760E38AE292E00E94CB0383E592E00E
:100F90000197F1F760E28AE292E00E94CB03609150
:100FA0002F02606240E08AE292E00E94E40384E063
:100FB0008093300240E06CE08AE292E00E94E40319
:100FC00040E061E08AE292E00E94E403CBE3DFE1EB
:100FD000CE010197F1F782E08093310240E066E0B4
:100FE0008AE292E00E94E40340E062E08AE292E05A
:100FF0000E94E4032197F1F788E08093350260E0D6
:101000008AE292E00E94930290E080E00E945309FD
:1010100090E090930D0280930C02892B79F081E08F
:1010200080930B0260E08BE00E94E40061E08CE0C2
:101030000E94E40061E085E00E94E40092EB292E2A
:1010400090E0392E2CE3E22EF12C00E010E0E0E8F5
:10105000F0E08491E4E9F0E0C491F101D491DD2362
:1010600009F4F6C081110E94BB00ED2FF0E0EE0FF5
:10107000FF1FEC55FF4FA591B4918C91C82391E0CF
:1010800080E009F490E0C92FD82F809129028230A6
:1010900008F0E1C0F8948EE192E00E947D03809018
:1010A000250290902602A0902702B0902802789402
:1010B00080E00E94FB038AE291E00E948004240108
:1010C000092C000C660877084AE0C301B20177FEDC
:1010D0000EC041E06DE28AE292E00E94E4036627DE
:1010E0007727CB0164197509860997094AE00E94A0
:1010F000320484E391E00E948004C0900C02D090FE
:101100000D02CD2B19F5FCE3F89DC001F99D900D62
:10111000112490930D0280930C0280910B02811197
:101120009CC081E080930B0261E085E00E94E400B6
:1011300060E08BE00E94E40061E08CE00E94E4004B
:1011400068EC70E080E090E00E94730180910B02F7
:10115000882309F476C08FB7F8948090FF019090AF
:101160000002A0900102B09002028FBF809107029E
:1011700090910802A0910902B0910A02A501940180
:10118000281B390B4A0B5B0BDA01C90180339547E9
:10119000A105B10570F08092070290920802A0921A
:1011A0000902B0920A0260910C0290E080E00E9475
:1011B0005B098091030290910402A0910502B09115
:1011C0000602A5019401281B390B4A0B5B0BDA01BF
:1011D000C901883E9340A105B10598F080920302B1
:1011E00090920402A0920502B092060280910C0235
:1011F00090910D020097A9F1019790930D028093B1
:101200000C0281E00E94FB038EE291E00E948004C8
:10121000C601B7010E946909EC0170E090E080E02E
:101220004AE00E94320489E391E00E948004BE01FA
:1012300090E080E04AE00E9432048CE391E00E945A
:1012400080040115110509F402CF0E940000FFCEB1
:10125000D0E0C0E01ACFF89422CF10920B0260E0E9
:1012600064CF60E08BE00E94E40061E08CE00E94CB
:10127000E40060E085E00E94E40061E086E00E9416
:10128000E40068EE73E080E090E00E94730160E0AB
:1012900086E00E94E40010920B0260E090E080E0A3
:1012A0000E945B09AECFF999FECF92BD81BDF89A3D
:1012B000992780B50895262FF999FECF1FBA92BDC0
:1012C00081BD20BD0FB6F894FA9AF99A0FBE019627
:1012D0000895AA1BBB1B51E107C0AA1FBB1FA6177D
:1012E000B70710F0A61BB70B881F991F5A95A9F7CF
:1012F00080959095BC01CD010895A1E21A2EAA1BFC
:10130000BB1BFD010DC0AA1FBB1FEE1FFF1FA217B5
:10131000B307E407F50720F0A21BB30BE40BF50BB2
:10132000661F771F881F991F1A9469F7609570953B
:10133000809590959B01AC01BD01CF010895EE0F02
:0E134000FF1F0590F491E02D0994F894FFCF63
:10134E00A501A5010000400014005400000000009B
:10135E00640237027A030D0230021D020E020000F3
:10136E0000002C048E007A03A60153657420546984
:10137E006D653A006D202020006D20007320000066
:00000001FF
